{
  "_format": "hh-sol-artifact-1",
  "contractName": "CrowdFunding",
  "sourceName": "contracts/Crowdfunding.sol",
  "abi": [
    {
      "anonymous": false,
      "inputs": [
        {
          "indexed": false,
          "internalType": "address payable",
          "name": "contractAddress",
          "type": "address"
        },
        {
          "indexed": false,
          "internalType": "address payable",
          "name": "projectStarter",
          "type": "address"
        },
        {
          "indexed": false,
          "internalType": "string",
          "name": "projectTitle",
          "type": "string"
        },
        {
          "indexed": false,
          "internalType": "string",
          "name": "projectDesc",
          "type": "string"
        },
        {
          "indexed": false,
          "internalType": "uint256",
          "name": "deadline",
          "type": "uint256"
        },
        {
          "indexed": false,
          "internalType": "uint256",
          "name": "goalAmount",
          "type": "uint256"
        },
        {
          "indexed": false,
          "internalType": "uint256",
          "name": "numFunders",
          "type": "uint256"
        }
      ],
      "name": "projectStarted",
      "type": "event"
    },
    {
      "inputs": [
        {
          "internalType": "uint256",
          "name": "proj",
          "type": "uint256"
        }
      ],
      "name": "checkIfFundingCompleteOrExpired",
      "outputs": [],
      "stateMutability": "nonpayable",
      "type": "function"
    },
    {
      "inputs": [
        {
          "internalType": "uint256",
          "name": "id",
          "type": "uint256"
        }
      ],
      "name": "contribute",
      "outputs": [],
      "stateMutability": "payable",
      "type": "function"
    },
    {
      "inputs": [
        {
          "internalType": "uint256",
          "name": "",
          "type": "uint256"
        }
      ],
      "name": "projects",
      "outputs": [
        {
          "internalType": "address payable",
          "name": "contractAddress",
          "type": "address"
        },
        {
          "internalType": "address payable",
          "name": "projectStarter",
          "type": "address"
        },
        {
          "internalType": "string",
          "name": "projectTitle",
          "type": "string"
        },
        {
          "internalType": "string",
          "name": "projectDesc",
          "type": "string"
        },
        {
          "internalType": "uint256",
          "name": "goalAmount",
          "type": "uint256"
        },
        {
          "internalType": "uint256",
          "name": "deadline",
          "type": "uint256"
        },
        {
          "internalType": "uint256",
          "name": "numFunders",
          "type": "uint256"
        },
        {
          "internalType": "uint256",
          "name": "amount",
          "type": "uint256"
        },
        {
          "internalType": "string",
          "name": "status",
          "type": "string"
        },
        {
          "internalType": "uint256",
          "name": "id",
          "type": "uint256"
        }
      ],
      "stateMutability": "view",
      "type": "function"
    },
    {
      "inputs": [],
      "name": "returnAllProjects",
      "outputs": [
        {
          "components": [
            {
              "internalType": "address payable",
              "name": "contractAddress",
              "type": "address"
            },
            {
              "internalType": "address payable",
              "name": "projectStarter",
              "type": "address"
            },
            {
              "internalType": "string",
              "name": "projectTitle",
              "type": "string"
            },
            {
              "internalType": "string",
              "name": "projectDesc",
              "type": "string"
            },
            {
              "internalType": "uint256",
              "name": "goalAmount",
              "type": "uint256"
            },
            {
              "internalType": "uint256",
              "name": "deadline",
              "type": "uint256"
            },
            {
              "internalType": "uint256",
              "name": "numFunders",
              "type": "uint256"
            },
            {
              "internalType": "uint256",
              "name": "amount",
              "type": "uint256"
            },
            {
              "internalType": "string",
              "name": "status",
              "type": "string"
            },
            {
              "internalType": "uint256",
              "name": "id",
              "type": "uint256"
            }
          ],
          "internalType": "struct CrowdFunding.Project[]",
          "name": "",
          "type": "tuple[]"
        }
      ],
      "stateMutability": "view",
      "type": "function"
    },
    {
      "inputs": [
        {
          "internalType": "string",
          "name": "title",
          "type": "string"
        },
        {
          "internalType": "string",
          "name": "description",
          "type": "string"
        },
        {
          "internalType": "uint256",
          "name": "amontToRaise",
          "type": "uint256"
        },
        {
          "internalType": "uint256",
          "name": "durationIndays",
          "type": "uint256"
        },
        {
          "internalType": "address payable",
          "name": "contractAddress",
          "type": "address"
        }
      ],
      "name": "startProject",
      "outputs": [],
      "stateMutability": "nonpayable",
      "type": "function"
    }
  ],
  "bytecode": "0x608060405234801561001057600080fd5b5061183b806100206000396000f3fe60806040526004361061004a5760003560e01c8063051d8acb1461004f578063107046bd14610078578063358ef816146100be57806385b6e28e146100e7578063c1cbbca714610112575b600080fd5b34801561005b57600080fd5b5061007660048036038101906100719190610f75565b61012e565b005b34801561008457600080fd5b5061009f600480360381019061009a9190611025565b61043e565b6040516100b59a99989796959493929190611446565b60405180910390f35b3480156100ca57600080fd5b506100e560048036038101906100e09190611025565b61067a565b005b3480156100f357600080fd5b506100fc610899565b60405161010991906114f7565b60405180910390f35b61012c60048036038101906101279190611025565b610b8d565b005b60006101586101496201518085610d6d90919063ffffffff16565b42610d8390919063ffffffff16565b9050600080600081548092919061016e9061171f565b919050559050600060026040518061014001604052808673ffffffffffffffffffffffffffffffffffffffff1681526020013373ffffffffffffffffffffffffffffffffffffffff1681526020018c8c8080601f016020809104026020016040519081016040528093929190818152602001838380828437600081840152601f19601f8201169050808301925050505050505081526020018a8a8080601f016020809104026020016040519081016040528093929190818152602001838380828437600081840152601f19601f8201169050808301925050505050505081526020018881526020018581526020018381526020018381526020016040518060400160405280600b81526020017f46756e6472616973696e6700000000000000000000000000000000000000000081525081526020018481525090806001815401808255809150506001900390600052602060002090600a020160009091909190915060008201518160000160006101000a81548173ffffffffffffffffffffffffffffffffffffffff021916908373ffffffffffffffffffffffffffffffffffffffff16021790555060208201518160010160006101000a81548173ffffffffffffffffffffffffffffffffffffffff021916908373ffffffffffffffffffffffffffffffffffffffff160217905550604082015181600201908051906020019061037a929190610e5e565b506060820151816003019080519060200190610397929190610e5e565b506080820151816004015560a0820151816005015560c0820151816006015560e082015181600701556101008201518160080190805190602001906103dd929190610e5e565b50610120820151816009015550507f7cdf2b6359c466190476c81ca118f5a5615e44a6021b9a00953b77dc08d92f5484338c8c8c8c898d8a60405161042a999897969594939291906113c5565b60405180910390a150505050505050505050565b6002818154811061044e57600080fd5b90600052602060002090600a02016000915090508060000160009054906101000a900473ffffffffffffffffffffffffffffffffffffffff16908060010160009054906101000a900473ffffffffffffffffffffffffffffffffffffffff16908060020180546104bd906116ed565b80601f01602080910402602001604051908101604052809291908181526020018280546104e9906116ed565b80156105365780601f1061050b57610100808354040283529160200191610536565b820191906000526020600020905b81548152906001019060200180831161051957829003601f168201915b50505050509080600301805461054b906116ed565b80601f0160208091040260200160405190810160405280929190818152602001828054610577906116ed565b80156105c45780601f10610599576101008083540402835291602001916105c4565b820191906000526020600020905b8154815290600101906020018083116105a757829003601f168201915b5050505050908060040154908060050154908060060154908060070154908060080180546105f1906116ed565b80601f016020809104026020016040519081016040528092919081815260200182805461061d906116ed565b801561066a5780601f1061063f5761010080835404028352916020019161066a565b820191906000526020600020905b81548152906001019060200180831161064d57829003601f168201915b505050505090806009015490508a565b600281815481106106b4577f4e487b7100000000000000000000000000000000000000000000000000000000600052603260045260246000fd5b90600052602060002090600a02016007015460028281548110610700577f4e487b7100000000000000000000000000000000000000000000000000000000600052603260045260246000fd5b90600052602060002090600a020160070154106107ad576040518060400160405280600a81526020017f5375636365737366756c0000000000000000000000000000000000000000000081525060028281548110610787577f4e487b7100000000000000000000000000000000000000000000000000000000600052603260045260246000fd5b90600052602060002090600a020160080190805190602001906107ab929190610e5e565b505b600281815481106107e7577f4e487b7100000000000000000000000000000000000000000000000000000000600052603260045260246000fd5b90600052602060002090600a020160050154421115610896576040518060400160405280600781526020017f457870697265640000000000000000000000000000000000000000000000000081525060028281548110610870577f4e487b7100000000000000000000000000000000000000000000000000000000600052603260045260246000fd5b90600052602060002090600a02016008019080519060200190610894929190610e5e565b505b50565b60606002805480602002602001604051908101604052809291908181526020016000905b82821015610b8457838290600052602060002090600a0201604051806101400160405290816000820160009054906101000a900473ffffffffffffffffffffffffffffffffffffffff1673ffffffffffffffffffffffffffffffffffffffff1673ffffffffffffffffffffffffffffffffffffffff1681526020016001820160009054906101000a900473ffffffffffffffffffffffffffffffffffffffff1673ffffffffffffffffffffffffffffffffffffffff1673ffffffffffffffffffffffffffffffffffffffff16815260200160028201805461099d906116ed565b80601f01602080910402602001604051908101604052809291908181526020018280546109c9906116ed565b8015610a165780601f106109eb57610100808354040283529160200191610a16565b820191906000526020600020905b8154815290600101906020018083116109f957829003601f168201915b50505050508152602001600382018054610a2f906116ed565b80601f0160208091040260200160405190810160405280929190818152602001828054610a5b906116ed565b8015610aa85780601f10610a7d57610100808354040283529160200191610aa8565b820191906000526020600020905b815481529060010190602001808311610a8b57829003601f168201915b5050505050815260200160048201548152602001600582015481526020016006820154815260200160078201548152602001600882018054610ae9906116ed565b80601f0160208091040260200160405190810160405280929190818152602001828054610b15906116ed565b8015610b625780601f10610b3757610100808354040283529160200191610b62565b820191906000526020600020905b815481529060010190602001808311610b4557829003601f168201915b50505050508152602001600982015481525050815260200190600101906108bd565b50505050905090565b6000610b9882610d99565b9050604051602001610ba9906113b0565b6040516020818303038152906040528051906020012060028281548110610bf9577f4e487b7100000000000000000000000000000000000000000000000000000000600052603260045260246000fd5b90600052602060002090600a0201600801604051602001610c1a9190611399565b604051602081830303815290604052805190602001201415610d69573460028281548110610c71577f4e487b7100000000000000000000000000000000000000000000000000000000600052603260045260246000fd5b90600052602060002090600a02016007016000828254610c9191906115bf565b92505081905550600160028281548110610cd4577f4e487b7100000000000000000000000000000000000000000000000000000000600052603260045260246000fd5b90600052602060002090600a02016006016000828254610cf491906115bf565b925050819055506000600160008481526020019081526020016000209050338160000160006101000a81548173ffffffffffffffffffffffffffffffffffffffff021916908373ffffffffffffffffffffffffffffffffffffffff160217905550348160010181905550610d678261067a565b505b5050565b60008183610d7b9190611615565b905092915050565b60008183610d9191906115bf565b905092915050565b600080600090505b600280549050811015610e1d578260028281548110610de9577f4e487b7100000000000000000000000000000000000000000000000000000000600052603260045260246000fd5b90600052602060002090600a0201600601541415610e0a5780915050610e59565b8080610e159061171f565b915050610da1565b506040517f08c379a0000000000000000000000000000000000000000000000000000000008152600401610e5090611519565b60405180910390fd5b919050565b828054610e6a906116ed565b90600052602060002090601f016020900481019282610e8c5760008555610ed3565b82601f10610ea557805160ff1916838001178555610ed3565b82800160010185558215610ed3579182015b82811115610ed2578251825591602001919060010190610eb7565b5b509050610ee09190610ee4565b5090565b5b80821115610efd576000816000905550600101610ee5565b5090565b600081359050610f10816117d7565b92915050565b60008083601f840112610f2857600080fd5b8235905067ffffffffffffffff811115610f4157600080fd5b602083019150836001820283011115610f5957600080fd5b9250929050565b600081359050610f6f816117ee565b92915050565b600080600080600080600060a0888a031215610f9057600080fd5b600088013567ffffffffffffffff811115610faa57600080fd5b610fb68a828b01610f16565b9750975050602088013567ffffffffffffffff811115610fd557600080fd5b610fe18a828b01610f16565b95509550506040610ff48a828b01610f60565b93505060606110058a828b01610f60565b92505060806110168a828b01610f01565b91505092959891949750929550565b60006020828403121561103757600080fd5b600061104584828501610f60565b91505092915050565b600061105a8383611293565b905092915050565b61106b8161166f565b82525050565b61107a8161166f565b82525050565b600061108b8261155e565b6110958185611581565b9350836020820285016110a785611539565b8060005b858110156110e357848403895281516110c4858261104e565b94506110cf83611574565b925060208a019950506001810190506110ab565b50829750879550505050505092915050565b600061110183856115a3565b935061110e8385846116ab565b611117836117c6565b840190509392505050565b600061112d82611569565b6111378185611592565b93506111478185602086016116ba565b611150816117c6565b840191505092915050565b600061116682611569565b61117081856115a3565b93506111808185602086016116ba565b611189816117c6565b840191505092915050565b600081546111a1816116ed565b6111ab81866115b4565b945060018216600081146111c657600181146111d75761120a565b60ff1983168652818601935061120a565b6111e085611549565b60005b83811015611202578154818901526001820191506020810190506111e3565b838801955050505b50505092915050565b6000611220600b836115b4565b91507f46756e6472616973696e670000000000000000000000000000000000000000006000830152600b82019050919050565b60006112606016836115a3565b91507f50726f6a65637420646f6573206e6f74206578697374000000000000000000006000830152602082019050919050565b6000610140830160008301516112ac6000860182611062565b5060208301516112bf6020860182611062565b50604083015184820360408601526112d78282611122565b915050606083015184820360608601526112f18282611122565b9150506080830151611306608086018261137b565b5060a083015161131960a086018261137b565b5060c083015161132c60c086018261137b565b5060e083015161133f60e086018261137b565b506101008301518482036101008601526113598282611122565b91505061012083015161137061012086018261137b565b508091505092915050565b611384816116a1565b82525050565b611393816116a1565b82525050565b60006113a58284611194565b915081905092915050565b60006113bb82611213565b9150819050919050565b600060e0820190506113da600083018c611071565b6113e7602083018b611071565b81810360408301526113fa81898b6110f5565b9050818103606083015261140f8187896110f5565b905061141e608083018661138a565b61142b60a083018561138a565b61143860c083018461138a565b9a9950505050505050505050565b60006101408201905061145c600083018d611071565b611469602083018c611071565b818103604083015261147b818b61115b565b9050818103606083015261148f818a61115b565b905061149e608083018961138a565b6114ab60a083018861138a565b6114b860c083018761138a565b6114c560e083018661138a565b8181036101008301526114d8818561115b565b90506114e861012083018461138a565b9b9a5050505050505050505050565b600060208201905081810360008301526115118184611080565b905092915050565b6000602082019050818103600083015261153281611253565b9050919050565b6000819050602082019050919050565b60008190508160005260206000209050919050565b600081519050919050565b600081519050919050565b6000602082019050919050565b600082825260208201905092915050565b600082825260208201905092915050565b600082825260208201905092915050565b600081905092915050565b60006115ca826116a1565b91506115d5836116a1565b9250827fffffffffffffffffffffffffffffffffffffffffffffffffffffffffffffffff0382111561160a57611609611768565b5b828201905092915050565b6000611620826116a1565b915061162b836116a1565b9250817fffffffffffffffffffffffffffffffffffffffffffffffffffffffffffffffff048311821515161561166457611663611768565b5b828202905092915050565b600061167a82611681565b9050919050565b600073ffffffffffffffffffffffffffffffffffffffff82169050919050565b6000819050919050565b82818337600083830152505050565b60005b838110156116d85780820151818401526020810190506116bd565b838111156116e7576000848401525b50505050565b6000600282049050600182168061170557607f821691505b6020821081141561171957611718611797565b5b50919050565b600061172a826116a1565b91507fffffffffffffffffffffffffffffffffffffffffffffffffffffffffffffffff82141561175d5761175c611768565b5b600182019050919050565b7f4e487b7100000000000000000000000000000000000000000000000000000000600052601160045260246000fd5b7f4e487b7100000000000000000000000000000000000000000000000000000000600052602260045260246000fd5b6000601f19601f8301169050919050565b6117e08161166f565b81146117eb57600080fd5b50565b6117f7816116a1565b811461180257600080fd5b5056fea2646970667358221220b3d04a07b7d23111f69018e72049bc138711cb2e03b5d6612325dbae1ac0fe2464736f6c63430008000033",
  "linkReferences": {},
  "deployedLinkReferences": {}
}