{
  "_format": "hh-sol-artifact-1",
  "contractName": "CrowdFunding",
  "sourceName": "contracts/Crowdfunding.sol",
  "abi": [
    {
      "anonymous": false,
      "inputs": [
        {
          "indexed": false,
          "internalType": "address",
          "name": "contributor",
          "type": "address"
        },
        {
          "indexed": false,
          "internalType": "uint256",
          "name": "amount",
          "type": "uint256"
        },
        {
          "indexed": false,
          "internalType": "uint256",
          "name": "currentTotal",
          "type": "uint256"
        }
      ],
      "name": "FundingReceived",
      "type": "event"
    },
    {
      "anonymous": false,
      "inputs": [
        {
          "indexed": false,
          "internalType": "address payable",
          "name": "contractAddress",
          "type": "address"
        },
        {
          "indexed": false,
          "internalType": "address payable",
          "name": "projectStarter",
          "type": "address"
        },
        {
          "indexed": false,
          "internalType": "string",
          "name": "projectTitle",
          "type": "string"
        },
        {
          "indexed": false,
          "internalType": "string",
          "name": "projectDesc",
          "type": "string"
        },
        {
          "indexed": false,
          "internalType": "uint256",
          "name": "deadline",
          "type": "uint256"
        },
        {
          "indexed": false,
          "internalType": "uint256",
          "name": "goalAmount",
          "type": "uint256"
        },
        {
          "indexed": false,
          "internalType": "uint256",
          "name": "numFunders",
          "type": "uint256"
        }
      ],
      "name": "projectStarted",
      "type": "event"
    },
    {
      "inputs": [
        {
          "internalType": "uint256",
          "name": "proj",
          "type": "uint256"
        }
      ],
      "name": "checkIfFundingCompleteOrExpired",
      "outputs": [],
      "stateMutability": "nonpayable",
      "type": "function"
    },
    {
      "inputs": [
        {
          "internalType": "uint256",
          "name": "id",
          "type": "uint256"
        },
        {
          "internalType": "uint256",
          "name": "amount",
          "type": "uint256"
        }
      ],
      "name": "contribute",
      "outputs": [],
      "stateMutability": "payable",
      "type": "function"
    },
    {
      "inputs": [
        {
          "internalType": "uint256",
          "name": "",
          "type": "uint256"
        }
      ],
      "name": "projects",
      "outputs": [
        {
          "internalType": "address payable",
          "name": "contractAddress",
          "type": "address"
        },
        {
          "internalType": "address payable",
          "name": "projectStarter",
          "type": "address"
        },
        {
          "internalType": "string",
          "name": "projectTitle",
          "type": "string"
        },
        {
          "internalType": "string",
          "name": "projectDesc",
          "type": "string"
        },
        {
          "internalType": "uint256",
          "name": "goalAmount",
          "type": "uint256"
        },
        {
          "internalType": "uint256",
          "name": "deadline",
          "type": "uint256"
        },
        {
          "internalType": "uint256",
          "name": "numFunders",
          "type": "uint256"
        },
        {
          "internalType": "uint256",
          "name": "amount",
          "type": "uint256"
        },
        {
          "internalType": "string",
          "name": "status",
          "type": "string"
        },
        {
          "internalType": "uint256",
          "name": "id",
          "type": "uint256"
        }
      ],
      "stateMutability": "view",
      "type": "function"
    },
    {
      "inputs": [],
      "name": "returnAllProjects",
      "outputs": [
        {
          "components": [
            {
              "internalType": "address payable",
              "name": "contractAddress",
              "type": "address"
            },
            {
              "internalType": "address payable",
              "name": "projectStarter",
              "type": "address"
            },
            {
              "internalType": "string",
              "name": "projectTitle",
              "type": "string"
            },
            {
              "internalType": "string",
              "name": "projectDesc",
              "type": "string"
            },
            {
              "internalType": "uint256",
              "name": "goalAmount",
              "type": "uint256"
            },
            {
              "internalType": "uint256",
              "name": "deadline",
              "type": "uint256"
            },
            {
              "internalType": "uint256",
              "name": "numFunders",
              "type": "uint256"
            },
            {
              "internalType": "uint256",
              "name": "amount",
              "type": "uint256"
            },
            {
              "internalType": "string",
              "name": "status",
              "type": "string"
            },
            {
              "internalType": "uint256",
              "name": "id",
              "type": "uint256"
            }
          ],
          "internalType": "struct CrowdFunding.Project[]",
          "name": "",
          "type": "tuple[]"
        }
      ],
      "stateMutability": "view",
      "type": "function"
    },
    {
      "inputs": [
        {
          "internalType": "string",
          "name": "title",
          "type": "string"
        },
        {
          "internalType": "string",
          "name": "description",
          "type": "string"
        },
        {
          "internalType": "uint256",
          "name": "amontToRaise",
          "type": "uint256"
        },
        {
          "internalType": "uint256",
          "name": "durationIndays",
          "type": "uint256"
        },
        {
          "internalType": "address payable",
          "name": "contractAddress",
          "type": "address"
        }
      ],
      "name": "startProject",
      "outputs": [],
      "stateMutability": "nonpayable",
      "type": "function"
    }
  ],
  "bytecode": "0x608060405234801561001057600080fd5b50611956806100206000396000f3fe60806040526004361061004a5760003560e01c8063051d8acb1461004f578063107046bd14610078578063358ef816146100be57806385b6e28e146100e75780638c59091714610112575b600080fd5b34801561005b57600080fd5b5061007660048036038101906100719190610ffc565b61012e565b005b34801561008457600080fd5b5061009f600480360381019061009a91906110ac565b61043e565b6040516100b59a99989796959493929190611518565b60405180910390f35b3480156100ca57600080fd5b506100e560048036038101906100e091906110ac565b61067a565b005b3480156100f357600080fd5b506100fc610899565b6040516101099190611600565b60405180910390f35b61012c600480360381019061012791906110d5565b610b8d565b005b60006101586101496201518085610df490919063ffffffff16565b42610e0a90919063ffffffff16565b9050600080600081548092919061016e9061183a565b919050559050600060026040518061014001604052808673ffffffffffffffffffffffffffffffffffffffff1681526020013373ffffffffffffffffffffffffffffffffffffffff1681526020018c8c8080601f016020809104026020016040519081016040528093929190818152602001838380828437600081840152601f19601f8201169050808301925050505050505081526020018a8a8080601f016020809104026020016040519081016040528093929190818152602001838380828437600081840152601f19601f8201169050808301925050505050505081526020018881526020018581526020018381526020018381526020016040518060400160405280600b81526020017f46756e6472616973696e6700000000000000000000000000000000000000000081525081526020018481525090806001815401808255809150506001900390600052602060002090600a020160009091909190915060008201518160000160006101000a81548173ffffffffffffffffffffffffffffffffffffffff021916908373ffffffffffffffffffffffffffffffffffffffff16021790555060208201518160010160006101000a81548173ffffffffffffffffffffffffffffffffffffffff021916908373ffffffffffffffffffffffffffffffffffffffff160217905550604082015181600201908051906020019061037a929190610ee5565b506060820151816003019080519060200190610397929190610ee5565b506080820151816004015560a0820151816005015560c0820151816006015560e082015181600701556101008201518160080190805190602001906103dd929190610ee5565b50610120820151816009015550507f7cdf2b6359c466190476c81ca118f5a5615e44a6021b9a00953b77dc08d92f5484338c8c8c8c898d8a60405161042a99989796959493929190611497565b60405180910390a150505050505050505050565b6002818154811061044e57600080fd5b90600052602060002090600a02016000915090508060000160009054906101000a900473ffffffffffffffffffffffffffffffffffffffff16908060010160009054906101000a900473ffffffffffffffffffffffffffffffffffffffff16908060020180546104bd90611808565b80601f01602080910402602001604051908101604052809291908181526020018280546104e990611808565b80156105365780601f1061050b57610100808354040283529160200191610536565b820191906000526020600020905b81548152906001019060200180831161051957829003601f168201915b50505050509080600301805461054b90611808565b80601f016020809104026020016040519081016040528092919081815260200182805461057790611808565b80156105c45780601f10610599576101008083540402835291602001916105c4565b820191906000526020600020905b8154815290600101906020018083116105a757829003601f168201915b5050505050908060040154908060050154908060060154908060070154908060080180546105f190611808565b80601f016020809104026020016040519081016040528092919081815260200182805461061d90611808565b801561066a5780601f1061063f5761010080835404028352916020019161066a565b820191906000526020600020905b81548152906001019060200180831161064d57829003601f168201915b505050505090806009015490508a565b600281815481106106b4577f4e487b7100000000000000000000000000000000000000000000000000000000600052603260045260246000fd5b90600052602060002090600a02016004015460028281548110610700577f4e487b7100000000000000000000000000000000000000000000000000000000600052603260045260246000fd5b90600052602060002090600a020160070154106107ad576040518060400160405280600a81526020017f5375636365737366756c0000000000000000000000000000000000000000000081525060028281548110610787577f4e487b7100000000000000000000000000000000000000000000000000000000600052603260045260246000fd5b90600052602060002090600a020160080190805190602001906107ab929190610ee5565b505b600281815481106107e7577f4e487b7100000000000000000000000000000000000000000000000000000000600052603260045260246000fd5b90600052602060002090600a020160050154421115610896576040518060400160405280600781526020017f457870697265640000000000000000000000000000000000000000000000000081525060028281548110610870577f4e487b7100000000000000000000000000000000000000000000000000000000600052603260045260246000fd5b90600052602060002090600a02016008019080519060200190610894929190610ee5565b505b50565b60606002805480602002602001604051908101604052809291908181526020016000905b82821015610b8457838290600052602060002090600a0201604051806101400160405290816000820160009054906101000a900473ffffffffffffffffffffffffffffffffffffffff1673ffffffffffffffffffffffffffffffffffffffff1673ffffffffffffffffffffffffffffffffffffffff1681526020016001820160009054906101000a900473ffffffffffffffffffffffffffffffffffffffff1673ffffffffffffffffffffffffffffffffffffffff1673ffffffffffffffffffffffffffffffffffffffff16815260200160028201805461099d90611808565b80601f01602080910402602001604051908101604052809291908181526020018280546109c990611808565b8015610a165780601f106109eb57610100808354040283529160200191610a16565b820191906000526020600020905b8154815290600101906020018083116109f957829003601f168201915b50505050508152602001600382018054610a2f90611808565b80601f0160208091040260200160405190810160405280929190818152602001828054610a5b90611808565b8015610aa85780601f10610a7d57610100808354040283529160200191610aa8565b820191906000526020600020905b815481529060010190602001808311610a8b57829003601f168201915b5050505050815260200160048201548152602001600582015481526020016006820154815260200160078201548152602001600882018054610ae990611808565b80601f0160208091040260200160405190810160405280929190818152602001828054610b1590611808565b8015610b625780601f10610b3757610100808354040283529160200191610b62565b820191906000526020600020905b815481529060010190602001808311610b4557829003601f168201915b50505050508152602001600982015481525050815260200190600101906108bd565b50505050905090565b6000610b9883610e20565b9050604051602001610ba990611482565b6040516020818303038152906040528051906020012060028281548110610bf9577f4e487b7100000000000000000000000000000000000000000000000000000000600052603260045260246000fd5b90600052602060002090600a0201600801604051602001610c1a919061146b565b604051602081830303815290604052805190602001201415610def578160028281548110610c71577f4e487b7100000000000000000000000000000000000000000000000000000000600052603260045260246000fd5b90600052602060002090600a02016007016000828254610c9191906116c8565b92505081905550600160028281548110610cd4577f4e487b7100000000000000000000000000000000000000000000000000000000600052603260045260246000fd5b90600052602060002090600a02016006016000828254610cf491906116c8565b925050819055506000600160008581526020019081526020016000209050338160000160006101000a81548173ffffffffffffffffffffffffffffffffffffffff021916908373ffffffffffffffffffffffffffffffffffffffff160217905550348160010181905550610d678261067a565b7f5cdc4ab8d637538ead6cc1904d4160343656c8c82bd266635cfd31ac008fffe0333460028581548110610dc4577f4e487b7100000000000000000000000000000000000000000000000000000000600052603260045260246000fd5b90600052602060002090600a020160070154604051610de5939291906115c9565b60405180910390a1505b505050565b60008183610e02919061171e565b905092915050565b60008183610e1891906116c8565b905092915050565b600080600090505b600280549050811015610ea4578260028281548110610e70577f4e487b7100000000000000000000000000000000000000000000000000000000600052603260045260246000fd5b90600052602060002090600a0201600601541415610e915780915050610ee0565b8080610e9c9061183a565b915050610e28565b506040517f08c379a0000000000000000000000000000000000000000000000000000000008152600401610ed790611622565b60405180910390fd5b919050565b828054610ef190611808565b90600052602060002090601f016020900481019282610f135760008555610f5a565b82601f10610f2c57805160ff1916838001178555610f5a565b82800160010185558215610f5a579182015b82811115610f59578251825591602001919060010190610f3e565b5b509050610f679190610f6b565b5090565b5b80821115610f84576000816000905550600101610f6c565b5090565b600081359050610f97816118f2565b92915050565b60008083601f840112610faf57600080fd5b8235905067ffffffffffffffff811115610fc857600080fd5b602083019150836001820283011115610fe057600080fd5b9250929050565b600081359050610ff681611909565b92915050565b600080600080600080600060a0888a03121561101757600080fd5b600088013567ffffffffffffffff81111561103157600080fd5b61103d8a828b01610f9d565b9750975050602088013567ffffffffffffffff81111561105c57600080fd5b6110688a828b01610f9d565b9550955050604061107b8a828b01610fe7565b935050606061108c8a828b01610fe7565b925050608061109d8a828b01610f88565b91505092959891949750929550565b6000602082840312156110be57600080fd5b60006110cc84828501610fe7565b91505092915050565b600080604083850312156110e857600080fd5b60006110f685828601610fe7565b925050602061110785828601610fe7565b9150509250929050565b600061111d8383611365565b905092915050565b61112e8161178a565b82525050565b61113d8161178a565b82525050565b61114c81611778565b82525050565b600061115d82611667565b611167818561168a565b93508360208202850161117985611642565b8060005b858110156111b557848403895281516111968582611111565b94506111a18361167d565b925060208a0199505060018101905061117d565b50829750879550505050505092915050565b60006111d383856116ac565b93506111e08385846117c6565b6111e9836118e1565b840190509392505050565b60006111ff82611672565b611209818561169b565b93506112198185602086016117d5565b611222816118e1565b840191505092915050565b600061123882611672565b61124281856116ac565b93506112528185602086016117d5565b61125b816118e1565b840191505092915050565b6000815461127381611808565b61127d81866116bd565b9450600182166000811461129857600181146112a9576112dc565b60ff198316865281860193506112dc565b6112b285611652565b60005b838110156112d4578154818901526001820191506020810190506112b5565b838801955050505b50505092915050565b60006112f2600b836116bd565b91507f46756e6472616973696e670000000000000000000000000000000000000000006000830152600b82019050919050565b60006113326016836116ac565b91507f50726f6a65637420646f6573206e6f74206578697374000000000000000000006000830152602082019050919050565b60006101408301600083015161137e6000860182611125565b5060208301516113916020860182611125565b50604083015184820360408601526113a982826111f4565b915050606083015184820360608601526113c382826111f4565b91505060808301516113d8608086018261144d565b5060a08301516113eb60a086018261144d565b5060c08301516113fe60c086018261144d565b5060e083015161141160e086018261144d565b5061010083015184820361010086015261142b82826111f4565b91505061012083015161144261012086018261144d565b508091505092915050565b611456816117bc565b82525050565b611465816117bc565b82525050565b60006114778284611266565b915081905092915050565b600061148d826112e5565b9150819050919050565b600060e0820190506114ac600083018c611134565b6114b9602083018b611134565b81810360408301526114cc81898b6111c7565b905081810360608301526114e18187896111c7565b90506114f0608083018661145c565b6114fd60a083018561145c565b61150a60c083018461145c565b9a9950505050505050505050565b60006101408201905061152e600083018d611134565b61153b602083018c611134565b818103604083015261154d818b61122d565b90508181036060830152611561818a61122d565b9050611570608083018961145c565b61157d60a083018861145c565b61158a60c083018761145c565b61159760e083018661145c565b8181036101008301526115aa818561122d565b90506115ba61012083018461145c565b9b9a5050505050505050505050565b60006060820190506115de6000830186611143565b6115eb602083018561145c565b6115f8604083018461145c565b949350505050565b6000602082019050818103600083015261161a8184611152565b905092915050565b6000602082019050818103600083015261163b81611325565b9050919050565b6000819050602082019050919050565b60008190508160005260206000209050919050565b600081519050919050565b600081519050919050565b6000602082019050919050565b600082825260208201905092915050565b600082825260208201905092915050565b600082825260208201905092915050565b600081905092915050565b60006116d3826117bc565b91506116de836117bc565b9250827fffffffffffffffffffffffffffffffffffffffffffffffffffffffffffffffff0382111561171357611712611883565b5b828201905092915050565b6000611729826117bc565b9150611734836117bc565b9250817fffffffffffffffffffffffffffffffffffffffffffffffffffffffffffffffff048311821515161561176d5761176c611883565b5b828202905092915050565b60006117838261179c565b9050919050565b60006117958261179c565b9050919050565b600073ffffffffffffffffffffffffffffffffffffffff82169050919050565b6000819050919050565b82818337600083830152505050565b60005b838110156117f35780820151818401526020810190506117d8565b83811115611802576000848401525b50505050565b6000600282049050600182168061182057607f821691505b60208210811415611834576118336118b2565b5b50919050565b6000611845826117bc565b91507fffffffffffffffffffffffffffffffffffffffffffffffffffffffffffffffff82141561187857611877611883565b5b600182019050919050565b7f4e487b7100000000000000000000000000000000000000000000000000000000600052601160045260246000fd5b7f4e487b7100000000000000000000000000000000000000000000000000000000600052602260045260246000fd5b6000601f19601f8301169050919050565b6118fb8161178a565b811461190657600080fd5b50565b611912816117bc565b811461191d57600080fd5b5056fea2646970667358221220396765d1917e2c6e0a51831e30be4ef98b192f61f430802619b34ba87e9b0fcc64736f6c63430008000033",
  "linkReferences": {},
  "deployedLinkReferences": {}
}